{
  "_format": "hh-sol-artifact-1",
  "contractName": "StakingFunctions",
  "sourceName": "contracts/StakingFunctions.sol",
  "abi": [
    {
      "inputs": [
        {
          "internalType": "address",
          "name": "_priceSetter",
          "type": "address"
        },
        {
          "internalType": "address",
          "name": "_StakingData",
          "type": "address"
        },
        {
          "internalType": "address",
          "name": "_OPCO",
          "type": "address"
        },
        {
          "internalType": "address",
          "name": "_BUSD",
          "type": "address"
        },
        {
          "internalType": "address",
          "name": "_store",
          "type": "address"
        }
      ],
      "stateMutability": "nonpayable",
      "type": "constructor"
    },
    {
      "anonymous": false,
      "inputs": [
        {
          "indexed": true,
          "internalType": "address",
          "name": "previousOwner",
          "type": "address"
        },
        {
          "indexed": true,
          "internalType": "address",
          "name": "newOwner",
          "type": "address"
        }
      ],
      "name": "OwnershipTransferred",
      "type": "event"
    },
    {
      "anonymous": false,
      "inputs": [
        {
          "indexed": false,
          "internalType": "uint16",
          "name": "pool",
          "type": "uint16"
        }
      ],
      "name": "modifyPool",
      "type": "event"
    },
    {
      "anonymous": false,
      "inputs": [
        {
          "indexed": false,
          "internalType": "uint16",
          "name": "poolId",
          "type": "uint16"
        }
      ],
      "name": "modifyUser",
      "type": "event"
    },
    {
      "anonymous": false,
      "inputs": [
        {
          "indexed": false,
          "internalType": "uint16",
          "name": "pool",
          "type": "uint16"
        }
      ],
      "name": "newPool",
      "type": "event"
    },
    {
      "anonymous": false,
      "inputs": [
        {
          "indexed": false,
          "internalType": "uint16",
          "name": "id",
          "type": "uint16"
        }
      ],
      "name": "newUserStake",
      "type": "event"
    },
    {
      "anonymous": false,
      "inputs": [
        {
          "indexed": false,
          "internalType": "uint16",
          "name": "id",
          "type": "uint16"
        }
      ],
      "name": "userCancelStake",
      "type": "event"
    },
    {
      "inputs": [
        {
          "internalType": "uint16",
          "name": "_id",
          "type": "uint16"
        },
        {
          "internalType": "uint128",
          "name": "_amount",
          "type": "uint128"
        }
      ],
      "name": "buyOnStore",
      "outputs": [],
      "stateMutability": "nonpayable",
      "type": "function"
    },
    {
      "inputs": [],
      "name": "getTokenPrice",
      "outputs": [
        {
          "internalType": "uint256",
          "name": "price",
          "type": "uint256"
        }
      ],
      "stateMutability": "view",
      "type": "function"
    },
    {
      "inputs": [],
      "name": "owner",
      "outputs": [
        {
          "internalType": "address",
          "name": "",
          "type": "address"
        }
      ],
      "stateMutability": "view",
      "type": "function"
    },
    {
      "inputs": [],
      "name": "renounceOwnership",
      "outputs": [],
      "stateMutability": "nonpayable",
      "type": "function"
    },
    {
      "inputs": [
        {
          "internalType": "uint128",
          "name": "_maxPerWallet",
          "type": "uint128"
        },
        {
          "internalType": "uint128",
          "name": "_maxPerPool",
          "type": "uint128"
        },
        {
          "internalType": "uint128",
          "name": "_stakeApr",
          "type": "uint128"
        },
        {
          "internalType": "uint32",
          "name": "_tokenLoketTime",
          "type": "uint32"
        },
        {
          "internalType": "uint8",
          "name": "_choiceReward",
          "type": "uint8"
        }
      ],
      "name": "setNewPool",
      "outputs": [],
      "stateMutability": "nonpayable",
      "type": "function"
    },
    {
      "inputs": [
        {
          "internalType": "uint16",
          "name": "_poolId",
          "type": "uint16"
        },
        {
          "internalType": "uint128",
          "name": "_stakedTokens",
          "type": "uint128"
        }
      ],
      "name": "setUserStake",
      "outputs": [],
      "stateMutability": "nonpayable",
      "type": "function"
    },
    {
      "inputs": [
        {
          "internalType": "uint16",
          "name": "_userId",
          "type": "uint16"
        },
        {
          "internalType": "uint128",
          "name": "_amount",
          "type": "uint128"
        }
      ],
      "name": "stakeMoreTokens",
      "outputs": [],
      "stateMutability": "nonpayable",
      "type": "function"
    },
    {
      "inputs": [
        {
          "internalType": "address",
          "name": "newOwner",
          "type": "address"
        }
      ],
      "name": "transferOwnership",
      "outputs": [],
      "stateMutability": "nonpayable",
      "type": "function"
    },
    {
      "inputs": [
        {
          "internalType": "uint16",
          "name": "_userId",
          "type": "uint16"
        },
        {
          "internalType": "uint8",
          "name": "_option",
          "type": "uint8"
        }
      ],
      "name": "userClaimReward",
      "outputs": [],
      "stateMutability": "nonpayable",
      "type": "function"
    },
    {
      "inputs": [
        {
          "internalType": "uint16",
          "name": "_userId",
          "type": "uint16"
        }
      ],
      "name": "userUnstake",
      "outputs": [],
      "stateMutability": "nonpayable",
      "type": "function"
    }
  ],
  "bytecode": "0x60806040523480156200001157600080fd5b5060405162004b4e38038062004b4e8339818101604052810190620000379190620003a0565b620000576200004b6200026a60201b60201c565b6200027260201b60201c565b84600160006101000a81548173ffffffffffffffffffffffffffffffffffffffff021916908373ffffffffffffffffffffffffffffffffffffffff16021790555083600260006101000a81548173ffffffffffffffffffffffffffffffffffffffff021916908373ffffffffffffffffffffffffffffffffffffffff16021790555082600360006101000a81548173ffffffffffffffffffffffffffffffffffffffff021916908373ffffffffffffffffffffffffffffffffffffffff16021790555081600460006101000a81548173ffffffffffffffffffffffffffffffffffffffff021916908373ffffffffffffffffffffffffffffffffffffffff16021790555083600760006101000a81548173ffffffffffffffffffffffffffffffffffffffff021916908373ffffffffffffffffffffffffffffffffffffffff16021790555082600560006101000a81548173ffffffffffffffffffffffffffffffffffffffff021916908373ffffffffffffffffffffffffffffffffffffffff16021790555081600660006101000a81548173ffffffffffffffffffffffffffffffffffffffff021916908373ffffffffffffffffffffffffffffffffffffffff16021790555080600860006101000a81548173ffffffffffffffffffffffffffffffffffffffff021916908373ffffffffffffffffffffffffffffffffffffffff160217905550505050505062000428565b600033905090565b60008060009054906101000a900473ffffffffffffffffffffffffffffffffffffffff169050816000806101000a81548173ffffffffffffffffffffffffffffffffffffffff021916908373ffffffffffffffffffffffffffffffffffffffff1602179055508173ffffffffffffffffffffffffffffffffffffffff168173ffffffffffffffffffffffffffffffffffffffff167f8be0079c531659141344cd1fd0a4f28419497f9722a3daafe3b4186f6b6457e060405160405180910390a35050565b600080fd5b600073ffffffffffffffffffffffffffffffffffffffff82169050919050565b600062000368826200033b565b9050919050565b6200037a816200035b565b81146200038657600080fd5b50565b6000815190506200039a816200036f565b92915050565b600080600080600060a08688031215620003bf57620003be62000336565b5b6000620003cf8882890162000389565b9550506020620003e28882890162000389565b9450506040620003f58882890162000389565b9350506060620004088882890162000389565b92505060806200041b8882890162000389565b9150509295509295909350565b61471680620004386000396000f3fe608060405234801561001057600080fd5b506004361061009e5760003560e01c80638da5cb5b116100665780638da5cb5b1461011f578063b776350f1461013d578063d069ec0914610159578063e9bfb39814610175578063f2fde38b146101915761009e565b806303d84a01146100a35780634b94f50e146100bf57806363570435146100dd5780636b4b5155146100f9578063715018a614610115575b600080fd5b6100bd60048036038101906100b89190612ef0565b6101ad565b005b6100c761036f565b6040516100d49190612f84565b60405180910390f35b6100f760048036038101906100f29190612fd9565b610407565b005b610113600480360381019061010e9190613019565b610755565b005b61011d61108b565b005b61012761109f565b604051610134919061309a565b60405180910390f35b61015760048036038101906101529190612fd9565b6110c8565b005b610173600480360381019061016e91906130b5565b611581565b005b61018f600480360381019061018a9190612fd9565b611a62565b005b6101ab60048036038101906101a6919061310e565b611fc3565b005b6101b5612046565b60008160ff16101580156101cd575060018160ff1611155b61020c576040517f08c379a000000000000000000000000000000000000000000000000000000000815260040161020390613198565b60405180910390fd5b600260009054906101000a900473ffffffffffffffffffffffffffffffffffffffff1673ffffffffffffffffffffffffffffffffffffffff1663abc25aff86868686866040518663ffffffff1660e01b815260040161026f9594939291906131e5565b600060405180830381600087803b15801561028957600080fd5b505af115801561029d573d6000803e3d6000fd5b505050507f4b04ab1bae756330f39c83c60aeed7eef803a0b0fc842000428d196f72cf8a6f600260009054906101000a900473ffffffffffffffffffffffffffffffffffffffff1673ffffffffffffffffffffffffffffffffffffffff166381ed0e5e6040518163ffffffff1660e01b8152600401602060405180830381865afa15801561032f573d6000803e3d6000fd5b505050506040513d601f19601f820116820180604052508101906103539190613264565b60405161036091906132a0565b60405180910390a15050505050565b6000600160009054906101000a900473ffffffffffffffffffffffffffffffffffffffff1673ffffffffffffffffffffffffffffffffffffffff16630fdb11cf6040518163ffffffff1660e01b8152600401602060405180830381865afa1580156103de573d6000803e3d6000fd5b505050506040513d601f19601f820116820180604052508101906104029190613264565b905090565b600080600260009054906101000a900473ffffffffffffffffffffffffffffffffffffffff1673ffffffffffffffffffffffffffffffffffffffff166330d535dc856040518263ffffffff1660e01b815260040161046591906132f6565b61016060405180830381865afa158015610483573d6000803e3d6000fd5b505050506040513d601f19601f820116820180604052508101906104a7919061339d565b505050505050509350505091503373ffffffffffffffffffffffffffffffffffffffff168273ffffffffffffffffffffffffffffffffffffffff1614610522576040517f08c379a0000000000000000000000000000000000000000000000000000000008152600401610519906134dd565b60405180910390fd5b6402540be40083610533919061352c565b6fffffffffffffffffffffffffffffffff16816fffffffffffffffffffffffffffffffff161015610599576040517f08c379a0000000000000000000000000000000000000000000000000000000008152600401610590906135e8565b60405180910390fd5b600260009054906101000a900473ffffffffffffffffffffffffffffffffffffffff1673ffffffffffffffffffffffffffffffffffffffff166339c1eb7e600860009054906101000a900473ffffffffffffffffffffffffffffffffffffffff16600560009054906101000a900473ffffffffffffffffffffffffffffffffffffffff16866040518463ffffffff1660e01b815260040161063c93929190613639565b600060405180830381600087803b15801561065657600080fd5b505af115801561066a573d6000803e3d6000fd5b50505050600260009054906101000a900473ffffffffffffffffffffffffffffffffffffffff1673ffffffffffffffffffffffffffffffffffffffff166363ad3718856402540be400866106be919061352c565b846106c99190613670565b6040518363ffffffff1660e01b81526004016106e69291906136b4565b600060405180830381600087803b15801561070057600080fd5b505af1158015610714573d6000803e3d6000fd5b505050507fd60e04cd7adba104ca48b81e5e4ac993529fe9ed280628f6445d6e2f0b1aa3868460405161074791906132a0565b60405180910390a150505050565b6000806000806000806000600260009054906101000a900473ffffffffffffffffffffffffffffffffffffffff1673ffffffffffffffffffffffffffffffffffffffff166330d535dc8a6040518263ffffffff1660e01b81526004016107bb91906132f6565b61016060405180830381865afa1580156107d9573d6000803e3d6000fd5b505050506040513d601f19601f820116820180604052508101906107fd919061339d565b9a5050995050505096509650965096509650600080600260009054906101000a900473ffffffffffffffffffffffffffffffffffffffff1673ffffffffffffffffffffffffffffffffffffffff1663ec002081856040518263ffffffff1660e01b815260040161086d91906132f6565b61010060405180830381865afa15801561088b573d6000803e3d6000fd5b505050506040513d601f19601f820116820180604052508101906108af91906136f2565b975097505050505050508873ffffffffffffffffffffffffffffffffffffffff163373ffffffffffffffffffffffffffffffffffffffff1614610927576040517f08c379a000000000000000000000000000000000000000000000000000000000815260040161091e906137f4565b60405180910390fd5b600115156109348c6120c4565b151514610976576040517f08c379a000000000000000000000000000000000000000000000000000000000815260040161096d90613860565b60405180910390fd5b60011515811515146109bd576040517f08c379a00000000000000000000000000000000000000000000000000000000081526004016109b4906138cc565b60405180910390fd5b6001151583151514610a04576040517f08c379a00000000000000000000000000000000000000000000000000000000081526004016109fb90613938565b60405180910390fd5b60008a60ff16118015610a1b575060028a60ff1611155b610a5a576040517f08c379a0000000000000000000000000000000000000000000000000000000008152600401610a51906139a4565b60405180910390fd5b6000610a658c6121d4565b905060018b60ff16148015610a7d575060008360ff16145b15610be057600260009054906101000a900473ffffffffffffffffffffffffffffffffffffffff1673ffffffffffffffffffffffffffffffffffffffff166339c1eb7e33600560009054906101000a900473ffffffffffffffffffffffffffffffffffffffff166402540be40085610af591906139f3565b6040518463ffffffff1660e01b8152600401610b1393929190613a24565b600060405180830381600087803b158015610b2d57600080fd5b505af1158015610b41573d6000803e3d6000fd5b50505050600260009054906101000a900473ffffffffffffffffffffffffffffffffffffffff1673ffffffffffffffffffffffffffffffffffffffff166363ad37188d8a8a610b909190613a5b565b6040518363ffffffff1660e01b8152600401610bad9291906136b4565b600060405180830381600087803b158015610bc757600080fd5b505af1158015610bdb573d6000803e3d6000fd5b505050505b60018b60ff16148015610bf6575060018360ff16145b15610d7957600260009054906101000a900473ffffffffffffffffffffffffffffffffffffffff1673ffffffffffffffffffffffffffffffffffffffff166339c1eb7e33600660009054906101000a900473ffffffffffffffffffffffffffffffffffffffff16670de0b6b3a76400008d6fffffffffffffffffffffffffffffffff1686610c849190613a9f565b610c8e91906139f3565b6040518463ffffffff1660e01b8152600401610cac93929190613a24565b600060405180830381600087803b158015610cc657600080fd5b505af1158015610cda573d6000803e3d6000fd5b50505050600260009054906101000a900473ffffffffffffffffffffffffffffffffffffffff1673ffffffffffffffffffffffffffffffffffffffff166363ad37188d8a8a610d299190613a5b565b6040518363ffffffff1660e01b8152600401610d469291906136b4565b600060405180830381600087803b158015610d6057600080fd5b505af1158015610d74573d6000803e3d6000fd5b505050505b60028b60ff16148015610d8f575060008360ff16145b80610dac575060028b60ff16148015610dab575060018360ff16145b5b15610e7b57600260009054906101000a900473ffffffffffffffffffffffffffffffffffffffff1673ffffffffffffffffffffffffffffffffffffffff166363ad37188d8a6fffffffffffffffffffffffffffffffff16848b6fffffffffffffffffffffffffffffffff16610e219190613af9565b610e2b9190613af9565b6040518363ffffffff1660e01b8152600401610e489291906136b4565b600060405180830381600087803b158015610e6257600080fd5b505af1158015610e76573d6000803e3d6000fd5b505050505b600260009054906101000a900473ffffffffffffffffffffffffffffffffffffffff1673ffffffffffffffffffffffffffffffffffffffff1663b154c05e8d60006040518363ffffffff1660e01b8152600401610ed9929190613b68565b600060405180830381600087803b158015610ef357600080fd5b505af1158015610f07573d6000803e3d6000fd5b50505050600260009054906101000a900473ffffffffffffffffffffffffffffffffffffffff1673ffffffffffffffffffffffffffffffffffffffff1663e0a973098d426040518363ffffffff1660e01b8152600401610f68929190613b91565b600060405180830381600087803b158015610f8257600080fd5b505af1158015610f96573d6000803e3d6000fd5b50505050600260009054906101000a900473ffffffffffffffffffffffffffffffffffffffff1673ffffffffffffffffffffffffffffffffffffffff166353cc4db78d83896fffffffffffffffffffffffffffffffff16610ff79190613af9565b6040518363ffffffff1660e01b81526004016110149291906136b4565b600060405180830381600087803b15801561102e57600080fd5b505af1158015611042573d6000803e3d6000fd5b505050507fd60e04cd7adba104ca48b81e5e4ac993529fe9ed280628f6445d6e2f0b1aa3868c60405161107591906132a0565b60405180910390a1505050505050505050505050565b611093612046565b61109d6000612412565b565b60008060009054906101000a900473ffffffffffffffffffffffffffffffffffffffff16905090565b6000806000806000600260009054906101000a900473ffffffffffffffffffffffffffffffffffffffff1673ffffffffffffffffffffffffffffffffffffffff166330d535dc886040518263ffffffff1660e01b815260040161112b91906132f6565b61016060405180830381865afa158015611149573d6000803e3d6000fd5b505050506040513d601f19601f8201168201806040525081019061116d919061339d565b9a505099505050505095509550509450600080600260009054906101000a900473ffffffffffffffffffffffffffffffffffffffff1673ffffffffffffffffffffffffffffffffffffffff1663ec002081856040518263ffffffff1660e01b81526004016111db91906132f6565b61010060405180830381865afa1580156111f9573d6000803e3d6000fd5b505050506040513d601f19601f8201168201806040525081019061121d91906136f2565b975050505050505091503373ffffffffffffffffffffffffffffffffffffffff168773ffffffffffffffffffffffffffffffffffffffff1614611295576040517f08c379a000000000000000000000000000000000000000000000000000000000815260040161128c906134dd565b60405180910390fd5b876fffffffffffffffffffffffffffffffff16600360009054906101000a900473ffffffffffffffffffffffffffffffffffffffff1673ffffffffffffffffffffffffffffffffffffffff166370a08231336040518263ffffffff1660e01b8152600401611303919061309a565b602060405180830381865afa158015611320573d6000803e3d6000fd5b505050506040513d601f19601f820116820180604052508101906113449190613264565b1015611385576040517f08c379a000000000000000000000000000000000000000000000000000000000815260040161137c90613c06565b60405180910390fd5b60011515831515146113cc576040517f08c379a00000000000000000000000000000000000000000000000000000000081526004016113c390613938565b60405180910390fd5b6001151581151514611413576040517f08c379a000000000000000000000000000000000000000000000000000000000815260040161140a90613938565b60405180910390fd5b816fffffffffffffffffffffffffffffffff166402540be40089611437919061352c565b866114429190613a5b565b6fffffffffffffffffffffffffffffffff161115611495576040517f08c379a000000000000000000000000000000000000000000000000000000000815260040161148c90613c72565b60405180910390fd5b600260009054906101000a900473ffffffffffffffffffffffffffffffffffffffff1673ffffffffffffffffffffffffffffffffffffffff1663b154c05e8a6402540be4008b6114e5919061352c565b896114f09190613a5b565b6040518363ffffffff1660e01b815260040161150d9291906136b4565b600060405180830381600087803b15801561152757600080fd5b505af115801561153b573d6000803e3d6000fd5b505050507fd60e04cd7adba104ca48b81e5e4ac993529fe9ed280628f6445d6e2f0b1aa3868960405161156e91906132a0565b60405180910390a1505050505050505050565b6000806000806000600260009054906101000a900473ffffffffffffffffffffffffffffffffffffffff1673ffffffffffffffffffffffffffffffffffffffff166330d535dc876040518263ffffffff1660e01b81526004016115e491906132f6565b61016060405180830381865afa158015611602573d6000803e3d6000fd5b505050506040513d601f19601f82011682018060405250810190611626919061339d565b9a50505098505050506fffffffffffffffffffffffffffffffff1695506fffffffffffffffffffffffffffffffff1695505094508473ffffffffffffffffffffffffffffffffffffffff163373ffffffffffffffffffffffffffffffffffffffff16146116c8576040517f08c379a00000000000000000000000000000000000000000000000000000000081526004016116bf90613cde565b60405180910390fd5b428263ffffffff161115611711576040517f08c379a000000000000000000000000000000000000000000000000000000000815260040161170890613d4a565b60405180910390fd5b6117566040518060400160405280601281526020017f746f6b656e73204c6f636b65642054696d6500000000000000000000000000008152508363ffffffff166124d6565b6117956040518060400160405280600b81526020017f61637475616c2074696d65000000000000000000000000000000000000000000815250426124d6565b60011515811515146117dc576040517f08c379a00000000000000000000000000000000000000000000000000000000081526004016117d390613938565b60405180910390fd5b600260009054906101000a900473ffffffffffffffffffffffffffffffffffffffff1673ffffffffffffffffffffffffffffffffffffffff166339c1eb7e33600560009054906101000a900473ffffffffffffffffffffffffffffffffffffffff166402540be40088886118509190613af9565b61185a91906139f3565b6040518463ffffffff1660e01b815260040161187893929190613a24565b600060405180830381600087803b15801561189257600080fd5b505af11580156118a6573d6000803e3d6000fd5b50505050600260009054906101000a900473ffffffffffffffffffffffffffffffffffffffff1673ffffffffffffffffffffffffffffffffffffffff1663314c4aa98760006040518363ffffffff1660e01b8152600401611908929190613d79565b600060405180830381600087803b15801561192257600080fd5b505af1158015611936573d6000803e3d6000fd5b50505050600260009054906101000a900473ffffffffffffffffffffffffffffffffffffffff1673ffffffffffffffffffffffffffffffffffffffff166363ad37188760006040518363ffffffff1660e01b8152600401611998929190613b68565b600060405180830381600087803b1580156119b257600080fd5b505af11580156119c6573d6000803e3d6000fd5b50505050600260009054906101000a900473ffffffffffffffffffffffffffffffffffffffff1673ffffffffffffffffffffffffffffffffffffffff1663b154c05e8760006040518363ffffffff1660e01b8152600401611a28929190613b68565b600060405180830381600087803b158015611a4257600080fd5b505af1158015611a56573d6000803e3d6000fd5b50505050505050505050565b806fffffffffffffffffffffffffffffffff16600360009054906101000a900473ffffffffffffffffffffffffffffffffffffffff1673ffffffffffffffffffffffffffffffffffffffff166370a08231336040518263ffffffff1660e01b8152600401611ad0919061309a565b602060405180830381865afa158015611aed573d6000803e3d6000fd5b505050506040513d601f19601f82011682018060405250810190611b119190613264565b1015611b52576040517f08c379a0000000000000000000000000000000000000000000000000000000008152600401611b4990613dee565b60405180910390fd5b6000806000600260009054906101000a900473ffffffffffffffffffffffffffffffffffffffff1673ffffffffffffffffffffffffffffffffffffffff1663ec002081866040518263ffffffff1660e01b8152600401611bb291906132f6565b61010060405180830381865afa158015611bd0573d6000803e3d6000fd5b505050506040513d601f19601f82011682018060405250810190611bf491906136f2565b97505050509450505092506001151581151514611c46576040517f08c379a0000000000000000000000000000000000000000000000000000000008152600401611c3d906138cc565b60405180910390fd5b6402540be40084611c57919061352c565b6fffffffffffffffffffffffffffffffff16836fffffffffffffffffffffffffffffffff161015611cbd576040517f08c379a0000000000000000000000000000000000000000000000000000000008152600401611cb490613e5a565b60405180910390fd5b60011515611cdb866402540be40087611cd6919061352c565b612572565b151514611d1d576040517f08c379a0000000000000000000000000000000000000000000000000000000008152600401611d1490613ec6565b60405180910390fd5b60011515611d2b86336128ea565b151514611d6d576040517f08c379a0000000000000000000000000000000000000000000000000000000008152600401611d6490613f32565b60405180910390fd5b6000611d7761036f565b9050600260009054906101000a900473ffffffffffffffffffffffffffffffffffffffff1673ffffffffffffffffffffffffffffffffffffffff1663d2a0794e336402540be40088611dc9919061352c565b848763ffffffff1642611ddc9190613af9565b8b6040518663ffffffff1660e01b8152600401611dfd959493929190613f52565b600060405180830381600087803b158015611e1757600080fd5b505af1158015611e2b573d6000803e3d6000fd5b50505050600360009054906101000a900473ffffffffffffffffffffffffffffffffffffffff1673ffffffffffffffffffffffffffffffffffffffff166323b872dd33600760009054906101000a900473ffffffffffffffffffffffffffffffffffffffff16886040518463ffffffff1660e01b8152600401611eb093929190613639565b6020604051808303816000875af1158015611ecf573d6000803e3d6000fd5b505050506040513d601f19601f82011682018060405250810190611ef39190613fa5565b507faa630490b8f44315513bb32d8271b5c402dbce9e90ff93617f144906d4f81c78600260009054906101000a900473ffffffffffffffffffffffffffffffffffffffff1673ffffffffffffffffffffffffffffffffffffffff16633a4461466040518163ffffffff1660e01b8152600401602060405180830381865afa158015611f82573d6000803e3d6000fd5b505050506040513d601f19601f82011682018060405250810190611fa69190613264565b604051611fb391906132a0565b60405180910390a1505050505050565b611fcb612046565b600073ffffffffffffffffffffffffffffffffffffffff168173ffffffffffffffffffffffffffffffffffffffff160361203a576040517f08c379a000000000000000000000000000000000000000000000000000000000815260040161203190614044565b60405180910390fd5b61204381612412565b50565b61204e612c20565b73ffffffffffffffffffffffffffffffffffffffff1661206c61109f565b73ffffffffffffffffffffffffffffffffffffffff16146120c2576040517f08c379a00000000000000000000000000000000000000000000000000000000081526004016120b9906140b0565b60405180910390fd5b565b600080600260009054906101000a900473ffffffffffffffffffffffffffffffffffffffff1673ffffffffffffffffffffffffffffffffffffffff166330d535dc846040518263ffffffff1660e01b815260040161212291906132f6565b61016060405180830381865afa158015612140573d6000803e3d6000fd5b505050506040513d601f19601f82011682018060405250810190612164919061339d565b5050505096505050505050506000806121828363ffffffff16612c28565b50915091506000806121994263ffffffff16612c28565b50915091508083036121be578184036121b157600095505b8184146121bd57600195505b5b8083146121ca57600195505b5050505050919050565b6000806000806000600260009054906101000a900473ffffffffffffffffffffffffffffffffffffffff1673ffffffffffffffffffffffffffffffffffffffff166330d535dc876040518263ffffffff1660e01b815260040161223791906132f6565b61016060405180830381865afa158015612255573d6000803e3d6000fd5b505050506040513d601f19601f82011682018060405250810190612279919061339d565b5050985050509650965096505050506000600260009054906101000a900473ffffffffffffffffffffffffffffffffffffffff1673ffffffffffffffffffffffffffffffffffffffff1663ec002081836040518263ffffffff1660e01b81526004016122e591906132f6565b61010060405180830381865afa158015612303573d6000803e3d6000fd5b505050506040513d601f19601f8201168201806040525081019061232791906136f2565b5050505050925050506000603c80601861016d856fffffffffffffffffffffffffffffffff1661235791906139f3565b61236191906139f3565b61236b91906139f3565b61237591906139f3565b905060008463ffffffff164261238b91906140d0565b90506000662386f26fc1000083836123a39190613a9f565b6123ad91906139f3565b90506000886fffffffffffffffffffffffffffffffff16826123cf9190613a9f565b90506000886fffffffffffffffffffffffffffffffff16612710836123f491906139f3565b6123fe91906140d0565b9050809a5050505050505050505050919050565b60008060009054906101000a900473ffffffffffffffffffffffffffffffffffffffff169050816000806101000a81548173ffffffffffffffffffffffffffffffffffffffff021916908373ffffffffffffffffffffffffffffffffffffffff1602179055508173ffffffffffffffffffffffffffffffffffffffff168173ffffffffffffffffffffffffffffffffffffffff167f8be0079c531659141344cd1fd0a4f28419497f9722a3daafe3b4186f6b6457e060405160405180910390a35050565b61256e82826040516024016124ec929190614183565b6040516020818303038152906040527fb60e72cc000000000000000000000000000000000000000000000000000000007bffffffffffffffffffffffffffffffffffffffffffffffffffffffff19166020820180517bffffffffffffffffffffffffffffffffffffffffffffffffffffffff8381831617835250505050612c57565b5050565b600080600260009054906101000a900473ffffffffffffffffffffffffffffffffffffffff1673ffffffffffffffffffffffffffffffffffffffff1663ec002081856040518263ffffffff1660e01b81526004016125d091906132f6565b61010060405180830381865afa1580156125ee573d6000803e3d6000fd5b505050506040513d601f19601f8201168201806040525081019061261291906136f2565b5050505050509150506000600260009054906101000a900473ffffffffffffffffffffffffffffffffffffffff1673ffffffffffffffffffffffffffffffffffffffff166322e8c87d6040518163ffffffff1660e01b8152600401600060405180830381865afa15801561268a573d6000803e3d6000fd5b505050506040513d6000823e3d601f19601f820116820180604052508101906126b3919061440e565b5190506000805b8281101561285a578661ffff16600260009054906101000a900473ffffffffffffffffffffffffffffffffffffffff1673ffffffffffffffffffffffffffffffffffffffff166322e8c87d6040518163ffffffff1660e01b8152600401600060405180830381865afa158015612734573d6000803e3d6000fd5b505050506040513d6000823e3d601f19601f8201168201806040525081019061275d919061440e565b828151811061276f5761276e614457565b5b6020026020010151610100015161ffff160361284757600260009054906101000a900473ffffffffffffffffffffffffffffffffffffffff1673ffffffffffffffffffffffffffffffffffffffff166322e8c87d6040518163ffffffff1660e01b8152600401600060405180830381865afa1580156127f2573d6000803e3d6000fd5b505050506040513d6000823e3d601f19601f8201168201806040525081019061281b919061440e565b818151811061282d5761282c614457565b5b602002602001015160600151826128449190613a5b565b91505b808061285290614486565b9150506126ba565b50826fffffffffffffffffffffffffffffffff16858261287a9190613a5b565b6fffffffffffffffffffffffffffffffff161161289d57600193505050506128e4565b826fffffffffffffffffffffffffffffffff1685826128bc9190613a5b565b6fffffffffffffffffffffffffffffffff1611156128e057600093505050506128e4565b5050505b92915050565b600080600260009054906101000a900473ffffffffffffffffffffffffffffffffffffffff1673ffffffffffffffffffffffffffffffffffffffff166322e8c87d6040518163ffffffff1660e01b8152600401600060405180830381865afa15801561295a573d6000803e3d6000fd5b505050506040513d6000823e3d601f19601f82011682018060405250810190612983919061440e565b5190506001915060005b81811015612c18578373ffffffffffffffffffffffffffffffffffffffff16600260009054906101000a900473ffffffffffffffffffffffffffffffffffffffff1673ffffffffffffffffffffffffffffffffffffffff166322e8c87d6040518163ffffffff1660e01b8152600401600060405180830381865afa158015612a19573d6000803e3d6000fd5b505050506040513d6000823e3d601f19601f82011682018060405250810190612a42919061440e565b8281518110612a5457612a53614457565b5b60200260200101516000015173ffffffffffffffffffffffffffffffffffffffff16148015612b3e57508461ffff16600260009054906101000a900473ffffffffffffffffffffffffffffffffffffffff1673ffffffffffffffffffffffffffffffffffffffff166322e8c87d6040518163ffffffff1660e01b8152600401600060405180830381865afa158015612af0573d6000803e3d6000fd5b505050506040513d6000823e3d601f19601f82011682018060405250810190612b19919061440e565b8281518110612b2b57612b2a614457565b5b6020026020010151610100015161ffff16145b8015612bfb5750600260009054906101000a900473ffffffffffffffffffffffffffffffffffffffff1673ffffffffffffffffffffffffffffffffffffffff166322e8c87d6040518163ffffffff1660e01b8152600401600060405180830381865afa158015612bb2573d6000803e3d6000fd5b505050506040513d6000823e3d601f19601f82011682018060405250810190612bdb919061440e565b8181518110612bed57612bec614457565b5b602002602001015161014001515b15612c0557600092505b8080612c1090614486565b91505061298d565b505092915050565b600033905090565b6000806000612c446201518085612c3f91906139f3565b612c80565b8093508194508295505050509193909250565b60008151905060006a636f6e736f6c652e6c6f679050602083016000808483855afa5050505050565b600080600080849050600062253d8c62010bd983612c9e91906144d8565b612ca891906144d8565b9050600062023ab1826004612cbd919061451c565b612cc79190614633565b9050600460038262023ab1612cdc919061451c565b612ce691906144d8565b612cf09190614633565b82612cfb919061469d565b9150600062164b09600184612d1091906144d8565b610fa0612d1d919061451c565b612d279190614633565b9050601f6004826105b5612d3b919061451c565b612d459190614633565b84612d50919061469d565b612d5a91906144d8565b9250600061098f846050612d6e919061451c565b612d789190614633565b9050600060508261098f612d8c919061451c565b612d969190614633565b85612da1919061469d565b9050600b82612db09190614633565b945084600c612dbf919061451c565b600283612dcc91906144d8565b612dd6919061469d565b91508483603186612de7919061469d565b6064612df3919061451c565b612dfd91906144d8565b612e0791906144d8565b92508298508197508096505050505050509193909250565b6000604051905090565b600080fd5b600080fd5b60006fffffffffffffffffffffffffffffffff82169050919050565b612e5881612e33565b8114612e6357600080fd5b50565b600081359050612e7581612e4f565b92915050565b600063ffffffff82169050919050565b612e9481612e7b565b8114612e9f57600080fd5b50565b600081359050612eb181612e8b565b92915050565b600060ff82169050919050565b612ecd81612eb7565b8114612ed857600080fd5b50565b600081359050612eea81612ec4565b92915050565b600080600080600060a08688031215612f0c57612f0b612e29565b5b6000612f1a88828901612e66565b9550506020612f2b88828901612e66565b9450506040612f3c88828901612e66565b9350506060612f4d88828901612ea2565b9250506080612f5e88828901612edb565b9150509295509295909350565b6000819050919050565b612f7e81612f6b565b82525050565b6000602082019050612f996000830184612f75565b92915050565b600061ffff82169050919050565b612fb681612f9f565b8114612fc157600080fd5b50565b600081359050612fd381612fad565b92915050565b60008060408385031215612ff057612fef612e29565b5b6000612ffe85828601612fc4565b925050602061300f85828601612e66565b9150509250929050565b600080604083850312156130305761302f612e29565b5b600061303e85828601612fc4565b925050602061304f85828601612edb565b9150509250929050565b600073ffffffffffffffffffffffffffffffffffffffff82169050919050565b600061308482613059565b9050919050565b61309481613079565b82525050565b60006020820190506130af600083018461308b565b92915050565b6000602082840312156130cb576130ca612e29565b5b60006130d984828501612fc4565b91505092915050565b6130eb81613079565b81146130f657600080fd5b50565b600081359050613108816130e2565b92915050565b60006020828403121561312457613123612e29565b5b6000613132848285016130f9565b91505092915050565b600082825260208201905092915050565b7f63686f69636520612076616c6964206f7074696f6e0000000000000000000000600082015250565b600061318260158361313b565b915061318d8261314c565b602082019050919050565b600060208201905081810360008301526131b181613175565b9050919050565b6131c181612e33565b82525050565b6131d081612e7b565b82525050565b6131df81612eb7565b82525050565b600060a0820190506131fa60008301886131b8565b61320760208301876131b8565b61321460408301866131b8565b61322160608301856131c7565b61322e60808301846131d6565b9695505050505050565b61324181612f6b565b811461324c57600080fd5b50565b60008151905061325e81613238565b92915050565b60006020828403121561327a57613279612e29565b5b60006132888482850161324f565b91505092915050565b61329a81612f9f565b82525050565b60006020820190506132b56000830184613291565b92915050565b6000819050919050565b60006132e06132db6132d684612f9f565b6132bb565b612f6b565b9050919050565b6132f0816132c5565b82525050565b600060208201905061330b60008301846132e7565b92915050565b600081519050613320816130e2565b92915050565b60008151905061333581612e4f565b92915050565b60008151905061334a81612e8b565b92915050565b60008151905061335f81612fad565b92915050565b60008115159050919050565b61337a81613365565b811461338557600080fd5b50565b60008151905061339781613371565b92915050565b60008060008060008060008060008060006101608c8e0312156133c3576133c2612e29565b5b60006133d18e828f01613311565b9b505060206133e28e828f01613326565b9a505060406133f38e828f01613326565b99505060606134048e828f01613326565b98505060806134158e828f01613326565b97505060a06134268e828f0161333b565b96505060c06134378e828f0161333b565b95505060e06134488e828f0161333b565b94505061010061345a8e828f01613350565b93505061012061346c8e828f01613350565b92505061014061347e8e828f01613388565b9150509295989b509295989b9093969950565b7f796f7520617265206e6f7420746865206f776e65720000000000000000000000600082015250565b60006134c760158361313b565b91506134d282613491565b602082019050919050565b600060208201905081810360008301526134f6816134ba565b9050919050565b7f4e487b7100000000000000000000000000000000000000000000000000000000600052601160045260246000fd5b600061353782612e33565b915061354283612e33565b9250816fffffffffffffffffffffffffffffffff048311821515161561356b5761356a6134fd565b5b828202905092915050565b7f646f6e74206861766520656e6f7567746820746f6b656e7320696e207374616b60008201527f6500000000000000000000000000000000000000000000000000000000000000602082015250565b60006135d260218361313b565b91506135dd82613576565b604082019050919050565b60006020820190508181036000830152613601816135c5565b9050919050565b600061362361361e61361984612e33565b6132bb565b612f6b565b9050919050565b61363381613608565b82525050565b600060608201905061364e600083018661308b565b61365b602083018561308b565b613668604083018461362a565b949350505050565b600061367b82612e33565b915061368683612e33565b925082820390506fffffffffffffffffffffffffffffffff8111156136ae576136ad6134fd565b5b92915050565b60006040820190506136c96000830185613291565b6136d660208301846131b8565b9392505050565b6000815190506136ec81612ec4565b92915050565b600080600080600080600080610100898b03121561371357613712612e29565b5b60006137218b828c01613326565b98505060206137328b828c01613326565b97505060406137438b828c01613326565b96505060606137548b828c0161333b565b95505060806137658b828c0161333b565b94505060a06137768b828c01613350565b93505060c06137878b828c016136dd565b92505060e06137988b828c01613388565b9150509295985092959890939650565b7f796f75206d75737420626520746865206f776e65720000000000000000000000600082015250565b60006137de60158361313b565b91506137e9826137a8565b602082019050919050565b6000602082019050818103600083015261380d816137d1565b9050919050565b7f4e6f742076616c6964206461746520666f7220636c61696d0000000000000000600082015250565b600061384a60188361313b565b915061385582613814565b602082019050919050565b600060208201905081810360008301526138798161383d565b9050919050565b7f706f6f6c206e6f74206163746976650000000000000000000000000000000000600082015250565b60006138b6600f8361313b565b91506138c182613880565b602082019050919050565b600060208201905081810360008301526138e5816138a9565b9050919050565b7f75736572206e6f74206163746976650000000000000000000000000000000000600082015250565b6000613922600f8361313b565b915061392d826138ec565b602082019050919050565b6000602082019050818103600083015261395181613915565b9050919050565b7f73657420612076616c6964206f7074696f6e0000000000000000000000000000600082015250565b600061398e60128361313b565b915061399982613958565b602082019050919050565b600060208201905081810360008301526139bd81613981565b9050919050565b7f4e487b7100000000000000000000000000000000000000000000000000000000600052601260045260246000fd5b60006139fe82612f6b565b9150613a0983612f6b565b925082613a1957613a186139c4565b5b828204905092915050565b6000606082019050613a39600083018661308b565b613a46602083018561308b565b613a536040830184612f75565b949350505050565b6000613a6682612e33565b9150613a7183612e33565b925082820190506fffffffffffffffffffffffffffffffff811115613a9957613a986134fd565b5b92915050565b6000613aaa82612f6b565b9150613ab583612f6b565b9250817fffffffffffffffffffffffffffffffffffffffffffffffffffffffffffffffff0483118215151615613aee57613aed6134fd565b5b828202905092915050565b6000613b0482612f6b565b9150613b0f83612f6b565b9250828201905080821115613b2757613b266134fd565b5b92915050565b6000819050919050565b6000613b52613b4d613b4884613b2d565b6132bb565b612e33565b9050919050565b613b6281613b37565b82525050565b6000604082019050613b7d6000830185613291565b613b8a6020830184613b59565b9392505050565b6000604082019050613ba66000830185613291565b613bb360208301846131c7565b9392505050565b7f646f6e74206861766520656e6f756768742062616c616e636500000000000000600082015250565b6000613bf060198361313b565b9150613bfb82613bba565b602082019050919050565b60006020820190508181036000830152613c1f81613be3565b9050919050565b7f77616c6c6574207374616b65206c696d69740000000000000000000000000000600082015250565b6000613c5c60128361313b565b9150613c6782613c26565b602082019050919050565b60006020820190508181036000830152613c8b81613c4f565b9050919050565b7f596f75206d75737420626520746865206f776e65720000000000000000000000600082015250565b6000613cc860158361313b565b9150613cd382613c92565b602082019050919050565b60006020820190508181036000830152613cf781613cbb565b9050919050565b7f796f75206d75737420776169742074686520756e6c6f636b2064617465000000600082015250565b6000613d34601d8361313b565b9150613d3f82613cfe565b602082019050919050565b60006020820190508181036000830152613d6381613d27565b9050919050565b613d7381613365565b82525050565b6000604082019050613d8e6000830185613291565b613d9b6020830184613d6a565b9392505050565b7f756e737566696369656e7420757365722062616c616e63650000000000000000600082015250565b6000613dd860188361313b565b9150613de382613da2565b602082019050919050565b60006020820190508181036000830152613e0781613dcb565b9050919050565b7f6164647265737320726561636820746865206c696d6974000000000000000000600082015250565b6000613e4460178361313b565b9150613e4f82613e0e565b602082019050919050565b60006020820190508181036000830152613e7381613e37565b9050919050565b7f506f6f6c20726561636820746865206c696d6974000000000000000000000000600082015250565b6000613eb060148361313b565b9150613ebb82613e7a565b602082019050919050565b60006020820190508181036000830152613edf81613ea3565b9050919050565b7f796f752061726520616c726561647920696e20706f6f6c000000000000000000600082015250565b6000613f1c60178361313b565b9150613f2782613ee6565b602082019050919050565b60006020820190508181036000830152613f4b81613f0f565b9050919050565b600060a082019050613f67600083018861308b565b613f7460208301876131b8565b613f8160408301866131b8565b613f8e60608301856131c7565b613f9b6080830184613291565b9695505050505050565b600060208284031215613fbb57613fba612e29565b5b6000613fc984828501613388565b91505092915050565b7f4f776e61626c653a206e6577206f776e657220697320746865207a65726f206160008201527f6464726573730000000000000000000000000000000000000000000000000000602082015250565b600061402e60268361313b565b915061403982613fd2565b604082019050919050565b6000602082019050818103600083015261405d81614021565b9050919050565b7f4f776e61626c653a2063616c6c6572206973206e6f7420746865206f776e6572600082015250565b600061409a60208361313b565b91506140a582614064565b602082019050919050565b600060208201905081810360008301526140c98161408d565b9050919050565b60006140db82612f6b565b91506140e683612f6b565b92508282039050818111156140fe576140fd6134fd565b5b92915050565b600081519050919050565b60005b8381101561412d578082015181840152602081019050614112565b60008484015250505050565b6000601f19601f8301169050919050565b600061415582614104565b61415f818561313b565b935061416f81856020860161410f565b61417881614139565b840191505092915050565b6000604082019050818103600083015261419d818561414a565b90506141ac6020830184612f75565b9392505050565b600080fd5b7f4e487b7100000000000000000000000000000000000000000000000000000000600052604160045260246000fd5b6141f082614139565b810181811067ffffffffffffffff8211171561420f5761420e6141b8565b5b80604052505050565b6000614222612e1f565b905061422e82826141e7565b919050565b600067ffffffffffffffff82111561424e5761424d6141b8565b5b602082029050602081019050919050565b600080fd5b600080fd5b600061016082840312156142805761427f614264565b5b61428b610160614218565b9050600061429b84828501613311565b60008301525060206142af84828501613326565b60208301525060406142c384828501613326565b60408301525060606142d784828501613326565b60608301525060806142eb84828501613326565b60808301525060a06142ff8482850161333b565b60a08301525060c06143138482850161333b565b60c08301525060e06143278482850161333b565b60e08301525061010061433c84828501613350565b6101008301525061012061435284828501613350565b6101208301525061014061436884828501613388565b6101408301525092915050565b600061438861438384614233565b614218565b90508083825260208201905061016084028301858111156143ac576143ab61425f565b5b835b818110156143d657806143c18882614269565b845260208401935050610160810190506143ae565b5050509392505050565b600082601f8301126143f5576143f46141b3565b5b8151614405848260208601614375565b91505092915050565b60006020828403121561442457614423612e29565b5b600082015167ffffffffffffffff81111561444257614441612e2e565b5b61444e848285016143e0565b91505092915050565b7f4e487b7100000000000000000000000000000000000000000000000000000000600052603260045260246000fd5b600061449182612f6b565b91507fffffffffffffffffffffffffffffffffffffffffffffffffffffffffffffffff82036144c3576144c26134fd565b5b600182019050919050565b6000819050919050565b60006144e3826144ce565b91506144ee836144ce565b925082820190508281121560008312168382126000841215161715614516576145156134fd565b5b92915050565b6000614527826144ce565b9150614532836144ce565b9250827f7fffffffffffffffffffffffffffffffffffffffffffffffffffffffffffffff0482116000841360008413161615614571576145706134fd565b5b817f800000000000000000000000000000000000000000000000000000000000000005831260008412600084131616156145ae576145ad6134fd565b5b827f800000000000000000000000000000000000000000000000000000000000000005821260008413600084121616156145eb576145ea6134fd565b5b827f7fffffffffffffffffffffffffffffffffffffffffffffffffffffffffffffff0582126000841260008412161615614628576146276134fd565b5b828202905092915050565b600061463e826144ce565b9150614649836144ce565b925082614659576146586139c4565b5b600160000383147f800000000000000000000000000000000000000000000000000000000000000083141615614692576146916134fd565b5b828205905092915050565b60006146a8826144ce565b91506146b3836144ce565b92508282039050818112600084121682821360008512151617156146da576146d96134fd565b5b9291505056fea2646970667358221220e59cc7cbac8eb90c6b054c14c6e8e483c8953ea292152ae718bc52d885dc617c64736f6c63430008100033",
  "linkReferences": {},
  "deployedLinkReferences": {}
}