{
  "_format": "hh-sol-artifact-1",
  "contractName": "priceSetter",
  "sourceName": "contracts/priceSetter.sol",
  "abi": [
    {
      "inputs": [
        {
          "internalType": "uint256",
          "name": "_price",
          "type": "uint256"
        }
      ],
      "stateMutability": "nonpayable",
      "type": "constructor"
    },
    {
      "anonymous": false,
      "inputs": [
        {
          "indexed": true,
          "internalType": "address",
          "name": "previousOwner",
          "type": "address"
        },
        {
          "indexed": true,
          "internalType": "address",
          "name": "newOwner",
          "type": "address"
        }
      ],
      "name": "OwnershipTransferred",
      "type": "event"
    },
    {
      "inputs": [],
      "name": "fetchPrice",
      "outputs": [
        {
          "internalType": "uint256",
          "name": "",
          "type": "uint256"
        }
      ],
      "stateMutability": "view",
      "type": "function"
    },
    {
      "inputs": [
        {
          "internalType": "uint256",
          "name": "_price",
          "type": "uint256"
        }
      ],
      "name": "newPrice",
      "outputs": [],
      "stateMutability": "nonpayable",
      "type": "function"
    },
    {
      "inputs": [],
      "name": "owner",
      "outputs": [
        {
          "internalType": "address",
          "name": "",
          "type": "address"
        }
      ],
      "stateMutability": "view",
      "type": "function"
    },
    {
      "inputs": [],
      "name": "price",
      "outputs": [
        {
          "internalType": "uint256",
          "name": "",
          "type": "uint256"
        }
      ],
      "stateMutability": "view",
      "type": "function"
    },
    {
      "inputs": [],
      "name": "renounceOwnership",
      "outputs": [],
      "stateMutability": "nonpayable",
      "type": "function"
    },
    {
      "inputs": [
        {
          "internalType": "address",
          "name": "newOwner",
          "type": "address"
        }
      ],
      "name": "transferOwnership",
      "outputs": [],
      "stateMutability": "nonpayable",
      "type": "function"
    },
    {
      "inputs": [],
      "name": "withdrawBNB",
      "outputs": [],
      "stateMutability": "payable",
      "type": "function"
    },
    {
      "inputs": [
        {
          "internalType": "address",
          "name": "_tokenContract",
          "type": "address"
        },
        {
          "internalType": "uint256",
          "name": "_amount",
          "type": "uint256"
        }
      ],
      "name": "withdrawToken",
      "outputs": [],
      "stateMutability": "nonpayable",
      "type": "function"
    }
  ],
  "bytecode": "0x608060405234801561001057600080fd5b506040516109a33803806109a383398181016040528101906100329190610162565b61004e61004361005b60201b60201c565b61006360201b60201c565b806001819055505061018f565b600033905090565b60008060009054906101000a900473ffffffffffffffffffffffffffffffffffffffff169050816000806101000a81548173ffffffffffffffffffffffffffffffffffffffff021916908373ffffffffffffffffffffffffffffffffffffffff1602179055508173ffffffffffffffffffffffffffffffffffffffff168173ffffffffffffffffffffffffffffffffffffffff167f8be0079c531659141344cd1fd0a4f28419497f9722a3daafe3b4186f6b6457e060405160405180910390a35050565b600080fd5b6000819050919050565b61013f8161012c565b811461014a57600080fd5b50565b60008151905061015c81610136565b92915050565b60006020828403121561017857610177610127565b5b60006101868482850161014d565b91505092915050565b6108058061019e6000396000f3fe60806040526004361061007b5760003560e01c80639e281a981161004e5780639e281a98146100f7578063a035b1fe14610120578063f2fde38b1461014b578063fe72ac7f146101745761007b565b80630fdb11cf146100805780631d111d13146100ab578063715018a6146100b55780638da5cb5b146100cc575b600080fd5b34801561008c57600080fd5b5061009561019d565b6040516100a291906104c4565b60405180910390f35b6100b36101a7565b005b3480156100c157600080fd5b506100ca6101f8565b005b3480156100d857600080fd5b506100e161020c565b6040516100ee9190610520565b60405180910390f35b34801561010357600080fd5b5061011e60048036038101906101199190610598565b610235565b005b34801561012c57600080fd5b506101356102c6565b60405161014291906104c4565b60405180910390f35b34801561015757600080fd5b50610172600480360381019061016d91906105d8565b6102cc565b005b34801561018057600080fd5b5061019b60048036038101906101969190610605565b61034f565b005b6000600154905090565b6101af610361565b3373ffffffffffffffffffffffffffffffffffffffff166108fc479081150290604051600060405180830381858888f193505050501580156101f5573d6000803e3d6000fd5b50565b610200610361565b61020a60006103df565b565b60008060009054906101000a900473ffffffffffffffffffffffffffffffffffffffff16905090565b61023d610361565b60008290508073ffffffffffffffffffffffffffffffffffffffff1663a9059cbb33846040518363ffffffff1660e01b815260040161027d929190610632565b6020604051808303816000875af115801561029c573d6000803e3d6000fd5b505050506040513d601f19601f820116820180604052508101906102c09190610693565b50505050565b60015481565b6102d4610361565b600073ffffffffffffffffffffffffffffffffffffffff168173ffffffffffffffffffffffffffffffffffffffff1603610343576040517f08c379a000000000000000000000000000000000000000000000000000000000815260040161033a90610743565b60405180910390fd5b61034c816103df565b50565b610357610361565b8060018190555050565b6103696104a3565b73ffffffffffffffffffffffffffffffffffffffff1661038761020c565b73ffffffffffffffffffffffffffffffffffffffff16146103dd576040517f08c379a00000000000000000000000000000000000000000000000000000000081526004016103d4906107af565b60405180910390fd5b565b60008060009054906101000a900473ffffffffffffffffffffffffffffffffffffffff169050816000806101000a81548173ffffffffffffffffffffffffffffffffffffffff021916908373ffffffffffffffffffffffffffffffffffffffff1602179055508173ffffffffffffffffffffffffffffffffffffffff168173ffffffffffffffffffffffffffffffffffffffff167f8be0079c531659141344cd1fd0a4f28419497f9722a3daafe3b4186f6b6457e060405160405180910390a35050565b600033905090565b6000819050919050565b6104be816104ab565b82525050565b60006020820190506104d960008301846104b5565b92915050565b600073ffffffffffffffffffffffffffffffffffffffff82169050919050565b600061050a826104df565b9050919050565b61051a816104ff565b82525050565b60006020820190506105356000830184610511565b92915050565b600080fd5b610549816104ff565b811461055457600080fd5b50565b60008135905061056681610540565b92915050565b610575816104ab565b811461058057600080fd5b50565b6000813590506105928161056c565b92915050565b600080604083850312156105af576105ae61053b565b5b60006105bd85828601610557565b92505060206105ce85828601610583565b9150509250929050565b6000602082840312156105ee576105ed61053b565b5b60006105fc84828501610557565b91505092915050565b60006020828403121561061b5761061a61053b565b5b600061062984828501610583565b91505092915050565b60006040820190506106476000830185610511565b61065460208301846104b5565b9392505050565b60008115159050919050565b6106708161065b565b811461067b57600080fd5b50565b60008151905061068d81610667565b92915050565b6000602082840312156106a9576106a861053b565b5b60006106b78482850161067e565b91505092915050565b600082825260208201905092915050565b7f4f776e61626c653a206e6577206f776e657220697320746865207a65726f206160008201527f6464726573730000000000000000000000000000000000000000000000000000602082015250565b600061072d6026836106c0565b9150610738826106d1565b604082019050919050565b6000602082019050818103600083015261075c81610720565b9050919050565b7f4f776e61626c653a2063616c6c6572206973206e6f7420746865206f776e6572600082015250565b60006107996020836106c0565b91506107a482610763565b602082019050919050565b600060208201905081810360008301526107c88161078c565b905091905056fea26469706673582212208b27d9f4d0cf09fc04798ba3bc4d3966c1654b411bd51c5ea5df2d099875eb6864736f6c63430008100033",
  "linkReferences": {},
  "deployedLinkReferences": {}
}