{
  "_format": "hh-sol-artifact-1",
  "contractName": "StakingData",
  "sourceName": "contracts/StakingData.sol",
  "abi": [
    {
      "inputs": [],
      "stateMutability": "nonpayable",
      "type": "constructor"
    },
    {
      "anonymous": false,
      "inputs": [
        {
          "indexed": true,
          "internalType": "address",
          "name": "previousOwner",
          "type": "address"
        },
        {
          "indexed": true,
          "internalType": "address",
          "name": "newOwner",
          "type": "address"
        }
      ],
      "name": "OwnershipTransferred",
      "type": "event"
    },
    {
      "anonymous": false,
      "inputs": [
        {
          "indexed": false,
          "internalType": "uint256",
          "name": "id",
          "type": "uint256"
        }
      ],
      "name": "modifyPool",
      "type": "event"
    },
    {
      "anonymous": false,
      "inputs": [
        {
          "indexed": false,
          "internalType": "uint256",
          "name": "id",
          "type": "uint256"
        }
      ],
      "name": "modifyUser",
      "type": "event"
    },
    {
      "anonymous": false,
      "inputs": [
        {
          "indexed": false,
          "internalType": "uint256",
          "name": "id",
          "type": "uint256"
        }
      ],
      "name": "newPool",
      "type": "event"
    },
    {
      "anonymous": false,
      "inputs": [
        {
          "indexed": false,
          "internalType": "uint256",
          "name": "id",
          "type": "uint256"
        }
      ],
      "name": "newUser",
      "type": "event"
    },
    {
      "inputs": [
        {
          "internalType": "address",
          "name": "",
          "type": "address"
        }
      ],
      "name": "adminContract",
      "outputs": [
        {
          "internalType": "bool",
          "name": "",
          "type": "bool"
        }
      ],
      "stateMutability": "view",
      "type": "function"
    },
    {
      "inputs": [
        {
          "internalType": "address",
          "name": "_admin",
          "type": "address"
        }
      ],
      "name": "deleteAdmin",
      "outputs": [],
      "stateMutability": "nonpayable",
      "type": "function"
    },
    {
      "inputs": [],
      "name": "getPoolData",
      "outputs": [
        {
          "components": [
            {
              "internalType": "uint128",
              "name": "maxPerWallet",
              "type": "uint128"
            },
            {
              "internalType": "uint128",
              "name": "maxPerPool",
              "type": "uint128"
            },
            {
              "internalType": "uint128",
              "name": "stakeApr",
              "type": "uint128"
            },
            {
              "internalType": "uint32",
              "name": "tokenLoketTime",
              "type": "uint32"
            },
            {
              "internalType": "uint32",
              "name": "stakeStartDate",
              "type": "uint32"
            },
            {
              "internalType": "uint16",
              "name": "id",
              "type": "uint16"
            },
            {
              "internalType": "uint8",
              "name": "choice",
              "type": "uint8"
            },
            {
              "internalType": "bool",
              "name": "active",
              "type": "bool"
            }
          ],
          "internalType": "struct StakingData.pools[]",
          "name": "",
          "type": "tuple[]"
        }
      ],
      "stateMutability": "view",
      "type": "function"
    },
    {
      "inputs": [],
      "name": "getUserData",
      "outputs": [
        {
          "components": [
            {
              "internalType": "address",
              "name": "owner",
              "type": "address"
            },
            {
              "internalType": "uint128",
              "name": "tokenPrice",
              "type": "uint128"
            },
            {
              "internalType": "uint128",
              "name": "tokensToReestake",
              "type": "uint128"
            },
            {
              "internalType": "uint128",
              "name": "stakedTokens",
              "type": "uint128"
            },
            {
              "internalType": "uint128",
              "name": "rewardedAmount",
              "type": "uint128"
            },
            {
              "internalType": "uint32",
              "name": "startTime",
              "type": "uint32"
            },
            {
              "internalType": "uint32",
              "name": "dateClaimed",
              "type": "uint32"
            },
            {
              "internalType": "uint32",
              "name": "tokensLockedTime",
              "type": "uint32"
            },
            {
              "internalType": "uint16",
              "name": "poolId",
              "type": "uint16"
            },
            {
              "internalType": "uint16",
              "name": "id",
              "type": "uint16"
            },
            {
              "internalType": "bool",
              "name": "activeUser",
              "type": "bool"
            }
          ],
          "internalType": "struct StakingData.data[]",
          "name": "",
          "type": "tuple[]"
        }
      ],
      "stateMutability": "view",
      "type": "function"
    },
    {
      "inputs": [
        {
          "internalType": "address",
          "name": "_to",
          "type": "address"
        },
        {
          "internalType": "address",
          "name": "_tokenContract",
          "type": "address"
        },
        {
          "internalType": "uint256",
          "name": "_amount",
          "type": "uint256"
        }
      ],
      "name": "manageBalance",
      "outputs": [],
      "stateMutability": "nonpayable",
      "type": "function"
    },
    {
      "inputs": [
        {
          "internalType": "uint16",
          "name": "_poolId",
          "type": "uint16"
        },
        {
          "internalType": "uint8",
          "name": "_choice",
          "type": "uint8"
        }
      ],
      "name": "modifyPoolChoice",
      "outputs": [],
      "stateMutability": "nonpayable",
      "type": "function"
    },
    {
      "inputs": [
        {
          "internalType": "uint16",
          "name": "_poolId",
          "type": "uint16"
        },
        {
          "internalType": "uint128",
          "name": "_maxPerPool",
          "type": "uint128"
        }
      ],
      "name": "modifyPoolMaxPerPool",
      "outputs": [],
      "stateMutability": "nonpayable",
      "type": "function"
    },
    {
      "inputs": [
        {
          "internalType": "uint16",
          "name": "_poolId",
          "type": "uint16"
        },
        {
          "internalType": "uint128",
          "name": "_maxPerWallet",
          "type": "uint128"
        }
      ],
      "name": "modifyPoolMaxPerWallet",
      "outputs": [],
      "stateMutability": "nonpayable",
      "type": "function"
    },
    {
      "inputs": [
        {
          "internalType": "uint16",
          "name": "_poolId",
          "type": "uint16"
        },
        {
          "internalType": "uint128",
          "name": "_apr",
          "type": "uint128"
        }
      ],
      "name": "modifyPoolStakeApr",
      "outputs": [],
      "stateMutability": "nonpayable",
      "type": "function"
    },
    {
      "inputs": [
        {
          "internalType": "uint16",
          "name": "_poolId",
          "type": "uint16"
        },
        {
          "internalType": "uint32",
          "name": "_tokenLockedTime",
          "type": "uint32"
        }
      ],
      "name": "modifyTokenLockedTime",
      "outputs": [],
      "stateMutability": "nonpayable",
      "type": "function"
    },
    {
      "inputs": [
        {
          "internalType": "uint16",
          "name": "_id",
          "type": "uint16"
        },
        {
          "internalType": "bool",
          "name": "_active",
          "type": "bool"
        }
      ],
      "name": "modifyUserDataActiveUser",
      "outputs": [],
      "stateMutability": "nonpayable",
      "type": "function"
    },
    {
      "inputs": [
        {
          "internalType": "uint16",
          "name": "_id",
          "type": "uint16"
        },
        {
          "internalType": "uint32",
          "name": "_dateClaimed",
          "type": "uint32"
        }
      ],
      "name": "modifyUserDataDateClaimed",
      "outputs": [],
      "stateMutability": "nonpayable",
      "type": "function"
    },
    {
      "inputs": [
        {
          "internalType": "uint16",
          "name": "_id",
          "type": "uint16"
        },
        {
          "internalType": "address",
          "name": "_owner",
          "type": "address"
        }
      ],
      "name": "modifyUserDataOwner",
      "outputs": [],
      "stateMutability": "nonpayable",
      "type": "function"
    },
    {
      "inputs": [
        {
          "internalType": "uint16",
          "name": "_id",
          "type": "uint16"
        },
        {
          "internalType": "uint128",
          "name": "_rewardedAmount",
          "type": "uint128"
        }
      ],
      "name": "modifyUserDataRewardedAmount",
      "outputs": [],
      "stateMutability": "nonpayable",
      "type": "function"
    },
    {
      "inputs": [
        {
          "internalType": "uint16",
          "name": "_id",
          "type": "uint16"
        },
        {
          "internalType": "uint128",
          "name": "_stakedTokens",
          "type": "uint128"
        }
      ],
      "name": "modifyUserDataStakedTokens",
      "outputs": [],
      "stateMutability": "nonpayable",
      "type": "function"
    },
    {
      "inputs": [
        {
          "internalType": "uint16",
          "name": "_id",
          "type": "uint16"
        },
        {
          "internalType": "uint32",
          "name": "_tokensLockedTime",
          "type": "uint32"
        }
      ],
      "name": "modifyUserDataTokensLockedTime",
      "outputs": [],
      "stateMutability": "nonpayable",
      "type": "function"
    },
    {
      "inputs": [
        {
          "internalType": "uint16",
          "name": "_id",
          "type": "uint16"
        },
        {
          "internalType": "uint128",
          "name": "_tokensToReestake",
          "type": "uint128"
        }
      ],
      "name": "modifyUserDataTokensToReestake",
      "outputs": [],
      "stateMutability": "nonpayable",
      "type": "function"
    },
    {
      "inputs": [
        {
          "internalType": "address",
          "name": "_admin",
          "type": "address"
        }
      ],
      "name": "newAdmin",
      "outputs": [],
      "stateMutability": "nonpayable",
      "type": "function"
    },
    {
      "inputs": [],
      "name": "owner",
      "outputs": [
        {
          "internalType": "address",
          "name": "",
          "type": "address"
        }
      ],
      "stateMutability": "view",
      "type": "function"
    },
    {
      "inputs": [
        {
          "internalType": "uint256",
          "name": "",
          "type": "uint256"
        }
      ],
      "name": "poolData",
      "outputs": [
        {
          "internalType": "uint128",
          "name": "maxPerWallet",
          "type": "uint128"
        },
        {
          "internalType": "uint128",
          "name": "maxPerPool",
          "type": "uint128"
        },
        {
          "internalType": "uint128",
          "name": "stakeApr",
          "type": "uint128"
        },
        {
          "internalType": "uint32",
          "name": "tokenLoketTime",
          "type": "uint32"
        },
        {
          "internalType": "uint32",
          "name": "stakeStartDate",
          "type": "uint32"
        },
        {
          "internalType": "uint16",
          "name": "id",
          "type": "uint16"
        },
        {
          "internalType": "uint8",
          "name": "choice",
          "type": "uint8"
        },
        {
          "internalType": "bool",
          "name": "active",
          "type": "bool"
        }
      ],
      "stateMutability": "view",
      "type": "function"
    },
    {
      "inputs": [],
      "name": "poolDataLength",
      "outputs": [
        {
          "internalType": "uint256",
          "name": "",
          "type": "uint256"
        }
      ],
      "stateMutability": "view",
      "type": "function"
    },
    {
      "inputs": [
        {
          "internalType": "uint128",
          "name": "_maxPerWallet",
          "type": "uint128"
        },
        {
          "internalType": "uint128",
          "name": "_maxPerPool",
          "type": "uint128"
        },
        {
          "internalType": "uint128",
          "name": "_stakeApr",
          "type": "uint128"
        },
        {
          "internalType": "uint32",
          "name": "_tokenLockedTime",
          "type": "uint32"
        },
        {
          "internalType": "uint8",
          "name": "_tokenReward",
          "type": "uint8"
        }
      ],
      "name": "pushPoolData",
      "outputs": [],
      "stateMutability": "nonpayable",
      "type": "function"
    },
    {
      "inputs": [
        {
          "internalType": "address",
          "name": "_owner",
          "type": "address"
        },
        {
          "internalType": "uint128",
          "name": "_stakedTokens",
          "type": "uint128"
        },
        {
          "internalType": "uint128",
          "name": "_tokenPrice",
          "type": "uint128"
        },
        {
          "internalType": "uint32",
          "name": "_tokensLockedTime",
          "type": "uint32"
        },
        {
          "internalType": "uint16",
          "name": "_poolId",
          "type": "uint16"
        }
      ],
      "name": "pushUserData",
      "outputs": [],
      "stateMutability": "nonpayable",
      "type": "function"
    },
    {
      "inputs": [],
      "name": "renounceOwnership",
      "outputs": [],
      "stateMutability": "nonpayable",
      "type": "function"
    },
    {
      "inputs": [
        {
          "internalType": "address",
          "name": "newOwner",
          "type": "address"
        }
      ],
      "name": "transferOwnership",
      "outputs": [],
      "stateMutability": "nonpayable",
      "type": "function"
    },
    {
      "inputs": [
        {
          "internalType": "uint256",
          "name": "",
          "type": "uint256"
        }
      ],
      "name": "userData",
      "outputs": [
        {
          "internalType": "address",
          "name": "owner",
          "type": "address"
        },
        {
          "internalType": "uint128",
          "name": "tokenPrice",
          "type": "uint128"
        },
        {
          "internalType": "uint128",
          "name": "tokensToReestake",
          "type": "uint128"
        },
        {
          "internalType": "uint128",
          "name": "stakedTokens",
          "type": "uint128"
        },
        {
          "internalType": "uint128",
          "name": "rewardedAmount",
          "type": "uint128"
        },
        {
          "internalType": "uint32",
          "name": "startTime",
          "type": "uint32"
        },
        {
          "internalType": "uint32",
          "name": "dateClaimed",
          "type": "uint32"
        },
        {
          "internalType": "uint32",
          "name": "tokensLockedTime",
          "type": "uint32"
        },
        {
          "internalType": "uint16",
          "name": "poolId",
          "type": "uint16"
        },
        {
          "internalType": "uint16",
          "name": "id",
          "type": "uint16"
        },
        {
          "internalType": "bool",
          "name": "activeUser",
          "type": "bool"
        }
      ],
      "stateMutability": "view",
      "type": "function"
    },
    {
      "inputs": [],
      "name": "userDataLength",
      "outputs": [
        {
          "internalType": "uint256",
          "name": "",
          "type": "uint256"
        }
      ],
      "stateMutability": "view",
      "type": "function"
    },
    {
      "inputs": [],
      "name": "withdrawBNB",
      "outputs": [],
      "stateMutability": "payable",
      "type": "function"
    },
    {
      "inputs": [
        {
          "internalType": "address",
          "name": "_tokenContract",
          "type": "address"
        },
        {
          "internalType": "uint256",
          "name": "_amount",
          "type": "uint256"
        }
      ],
      "name": "withdrawToken",
      "outputs": [],
      "stateMutability": "nonpayable",
      "type": "function"
    }
  ],
  "bytecode": "0x60806040523480156200001157600080fd5b5062000032620000266200009060201b60201c565b6200009860201b60201c565b6001600360003373ffffffffffffffffffffffffffffffffffffffff1673ffffffffffffffffffffffffffffffffffffffff16815260200190815260200160002060006101000a81548160ff0219169083151502179055506200015c565b600033905090565b60008060009054906101000a900473ffffffffffffffffffffffffffffffffffffffff169050816000806101000a81548173ffffffffffffffffffffffffffffffffffffffff021916908373ffffffffffffffffffffffffffffffffffffffff1602179055508173ffffffffffffffffffffffffffffffffffffffff168173ffffffffffffffffffffffffffffffffffffffff167f8be0079c531659141344cd1fd0a4f28419497f9722a3daafe3b4186f6b6457e060405160405180910390a35050565b6133d5806200016c6000396000f3fe6080604052600436106101c25760003560e01c806381ed0e5e116100f7578063b154c05e11610095578063ec00208111610064578063ec002081146105d1578063f2fde38b14610615578063fb29238b1461063e578063fba43e2714610669576101c2565b8063b154c05e1461052d578063d2a0794e14610556578063df9112991461057f578063e0a97309146105a8576101c2565b8063966c995b116100d1578063966c995b146104895780639e281a98146104b2578063a6ba31c1146104db578063abc25aff14610504576101c2565b806381ed0e5e146103f65780638903accc146104215780638da5cb5b1461045e576101c2565b80633a4461461161016457806353cc4db71161013e57806353cc4db7146103645780635e65d1bc1461038d57806363ad3718146103b6578063715018a6146103df576101c2565b80633a446146146102e75780633e4d0e0c1461031257806346c081e61461033b576101c2565b806330d535dc116101a057806330d535dc14610225578063314c4aa91461026c57806335a7fb3b1461029557806339c1eb7e146102be576101c2565b80631d111d13146101c757806322e8c87d146101d157806327e1f7df146101fc575b600080fd5b6101cf610692565b005b3480156101dd57600080fd5b506101e661076e565b6040516101f3919061298f565b60405180910390f35b34801561020857600080fd5b50610223600480360381019061021e91906129e2565b610a19565b005b34801561023157600080fd5b5061024c60048036038101906102479190612a45565b610a7c565b6040516102639b9a99989796959493929190612abd565b60405180910390f35b34801561027857600080fd5b50610293600480360381019061028e9190612bc0565b610bcf565b005b3480156102a157600080fd5b506102bc60048036038101906102b79190612c2c565b610ce3565b005b3480156102ca57600080fd5b506102e560048036038101906102e09190612c6c565b610dfe565b005b3480156102f357600080fd5b506102fc610f1b565b6040516103099190612cce565b60405180910390f35b34801561031e57600080fd5b5061033960048036038101906103349190612c2c565b610f28565b005b34801561034757600080fd5b50610362600480360381019061035d9190612ce9565b611043565b005b34801561037057600080fd5b5061038b60048036038101906103869190612d55565b611142565b005b34801561039957600080fd5b506103b460048036038101906103af9190612d55565b611239565b005b3480156103c257600080fd5b506103dd60048036038101906103d89190612d55565b61136c565b005b3480156103eb57600080fd5b506103f461149f565b005b34801561040257600080fd5b5061040b6114b3565b6040516104189190612cce565b60405180910390f35b34801561042d57600080fd5b50610448600480360381019061044391906129e2565b6114c0565b6040516104559190612d95565b60405180910390f35b34801561046a57600080fd5b506104736114e0565b6040516104809190612db0565b60405180910390f35b34801561049557600080fd5b506104b060048036038101906104ab9190612d55565b611509565b005b3480156104be57600080fd5b506104d960048036038101906104d49190612dcb565b61163c565b005b3480156104e757600080fd5b5061050260048036038101906104fd91906129e2565b611758565b005b34801561051057600080fd5b5061052b60048036038101906105269190612e44565b6117bb565b005b34801561053957600080fd5b50610554600480360381019061054f9190612d55565b611abe565b005b34801561056257600080fd5b5061057d60048036038101906105789190612ebf565b611bb5565b005b34801561058b57600080fd5b506105a660048036038101906105a19190612f3a565b611fad565b005b3480156105b457600080fd5b506105cf60048036038101906105ca9190612c2c565b612086565b005b3480156105dd57600080fd5b506105f860048036038101906105f39190612a45565b612165565b60405161060c989796959493929190612f89565b60405180910390f35b34801561062157600080fd5b5061063c600480360381019061063791906129e2565b612259565b005b34801561064a57600080fd5b506106536122dc565b6040516106609190613168565b60405180910390f35b34801561067557600080fd5b50610690600480360381019061068b9190612d55565b6124be565b005b60011515600360003373ffffffffffffffffffffffffffffffffffffffff1673ffffffffffffffffffffffffffffffffffffffff16815260200190815260200160002060009054906101000a900460ff16151514610725576040517f08c379a000000000000000000000000000000000000000000000000000000000815260040161071c906131e7565b60405180910390fd5b3373ffffffffffffffffffffffffffffffffffffffff166108fc479081150290604051600060405180830381858888f1935050505015801561076b573d6000803e3d6000fd5b50565b60606002805480602002602001604051908101604052809291908181526020016000905b82821015610a105783829060005260206000209060040201604051806101600160405290816000820160009054906101000a900473ffffffffffffffffffffffffffffffffffffffff1673ffffffffffffffffffffffffffffffffffffffff1673ffffffffffffffffffffffffffffffffffffffff1681526020016001820160009054906101000a90046fffffffffffffffffffffffffffffffff166fffffffffffffffffffffffffffffffff166fffffffffffffffffffffffffffffffff1681526020016001820160109054906101000a90046fffffffffffffffffffffffffffffffff166fffffffffffffffffffffffffffffffff166fffffffffffffffffffffffffffffffff1681526020016002820160009054906101000a90046fffffffffffffffffffffffffffffffff166fffffffffffffffffffffffffffffffff166fffffffffffffffffffffffffffffffff1681526020016002820160109054906101000a90046fffffffffffffffffffffffffffffffff166fffffffffffffffffffffffffffffffff166fffffffffffffffffffffffffffffffff1681526020016003820160009054906101000a900463ffffffff1663ffffffff1663ffffffff1681526020016003820160049054906101000a900463ffffffff1663ffffffff1663ffffffff1681526020016003820160089054906101000a900463ffffffff1663ffffffff1663ffffffff16815260200160038201600c9054906101000a900461ffff1661ffff1661ffff16815260200160038201600e9054906101000a900461ffff1661ffff1661ffff1681526020016003820160109054906101000a900460ff16151515158152505081526020019060010190610792565b50505050905090565b610a216125f1565b6000600360008373ffffffffffffffffffffffffffffffffffffffff1673ffffffffffffffffffffffffffffffffffffffff16815260200190815260200160002060006101000a81548160ff02191690831515021790555050565b60028181548110610a8c57600080fd5b90600052602060002090600402016000915090508060000160009054906101000a900473ffffffffffffffffffffffffffffffffffffffff16908060010160009054906101000a90046fffffffffffffffffffffffffffffffff16908060010160109054906101000a90046fffffffffffffffffffffffffffffffff16908060020160009054906101000a90046fffffffffffffffffffffffffffffffff16908060020160109054906101000a90046fffffffffffffffffffffffffffffffff16908060030160009054906101000a900463ffffffff16908060030160049054906101000a900463ffffffff16908060030160089054906101000a900463ffffffff169080600301600c9054906101000a900461ffff169080600301600e9054906101000a900461ffff16908060030160109054906101000a900460ff1690508b565b60011515600360003373ffffffffffffffffffffffffffffffffffffffff1673ffffffffffffffffffffffffffffffffffffffff16815260200190815260200160002060009054906101000a900460ff16151514610c62576040517f08c379a0000000000000000000000000000000000000000000000000000000008152600401610c59906131e7565b60405180910390fd5b8060028361ffff1681548110610c7b57610c7a613207565b5b906000526020600020906004020160030160106101000a81548160ff0219169083151502179055507f53bc4a09b347c31bcc5c1a86a43f3456fbf844af162376c692749b1c7cf368f4600280549050604051610cd79190612cce565b60405180910390a15050565b60011515600360003373ffffffffffffffffffffffffffffffffffffffff1673ffffffffffffffffffffffffffffffffffffffff16815260200190815260200160002060009054906101000a900460ff16151514610d76576040517f08c379a0000000000000000000000000000000000000000000000000000000008152600401610d6d906131e7565b60405180910390fd5b8060018361ffff1681548110610d8f57610d8e613207565b5b906000526020600020906002020160010160106101000a81548163ffffffff021916908363ffffffff1602179055507f9a58368a00a72c5a076bbc06d1add3c98cc91abb82de6d175409eac6fb48b614600180549050604051610df29190612cce565b60405180910390a15050565b60011515600360003373ffffffffffffffffffffffffffffffffffffffff1673ffffffffffffffffffffffffffffffffffffffff16815260200190815260200160002060009054906101000a900460ff16151514610e91576040517f08c379a0000000000000000000000000000000000000000000000000000000008152600401610e88906131e7565b60405180910390fd5b60008290508073ffffffffffffffffffffffffffffffffffffffff1663a9059cbb85846040518363ffffffff1660e01b8152600401610ed1929190613236565b6020604051808303816000875af1158015610ef0573d6000803e3d6000fd5b505050506040513d601f19601f82011682018060405250810190610f149190613274565b5050505050565b6000600280549050905090565b60011515600360003373ffffffffffffffffffffffffffffffffffffffff1673ffffffffffffffffffffffffffffffffffffffff16815260200190815260200160002060009054906101000a900460ff16151514610fbb576040517f08c379a0000000000000000000000000000000000000000000000000000000008152600401610fb2906131e7565b60405180910390fd5b8060028361ffff1681548110610fd457610fd3613207565b5b906000526020600020906004020160030160086101000a81548163ffffffff021916908363ffffffff1602179055507f53bc4a09b347c31bcc5c1a86a43f3456fbf844af162376c692749b1c7cf368f46002805490506040516110379190612cce565b60405180910390a15050565b60011515600360003373ffffffffffffffffffffffffffffffffffffffff1673ffffffffffffffffffffffffffffffffffffffff16815260200190815260200160002060009054906101000a900460ff161515146110d6576040517f08c379a00000000000000000000000000000000000000000000000000000000081526004016110cd906131e7565b60405180910390fd5b8060028361ffff16815481106110ef576110ee613207565b5b906000526020600020906004020160000160006101000a81548173ffffffffffffffffffffffffffffffffffffffff021916908373ffffffffffffffffffffffffffffffffffffffff1602179055505050565b60011515600360003373ffffffffffffffffffffffffffffffffffffffff1673ffffffffffffffffffffffffffffffffffffffff16815260200190815260200160002060009054906101000a900460ff161515146111d5576040517f08c379a00000000000000000000000000000000000000000000000000000000081526004016111cc906131e7565b60405180910390fd5b8060028361ffff16815481106111ee576111ed613207565b5b906000526020600020906004020160020160106101000a8154816fffffffffffffffffffffffffffffffff02191690836fffffffffffffffffffffffffffffffff1602179055505050565b60011515600360003373ffffffffffffffffffffffffffffffffffffffff1673ffffffffffffffffffffffffffffffffffffffff16815260200190815260200160002060009054906101000a900460ff161515146112cc576040517f08c379a00000000000000000000000000000000000000000000000000000000081526004016112c3906131e7565b60405180910390fd5b8060018361ffff16815481106112e5576112e4613207565b5b906000526020600020906002020160010160006101000a8154816fffffffffffffffffffffffffffffffff02191690836fffffffffffffffffffffffffffffffff1602179055507f9a58368a00a72c5a076bbc06d1add3c98cc91abb82de6d175409eac6fb48b6146001805490506040516113609190612cce565b60405180910390a15050565b60011515600360003373ffffffffffffffffffffffffffffffffffffffff1673ffffffffffffffffffffffffffffffffffffffff16815260200190815260200160002060009054906101000a900460ff161515146113ff576040517f08c379a00000000000000000000000000000000000000000000000000000000081526004016113f6906131e7565b60405180910390fd5b8060028361ffff168154811061141857611417613207565b5b906000526020600020906004020160020160006101000a8154816fffffffffffffffffffffffffffffffff02191690836fffffffffffffffffffffffffffffffff1602179055507f53bc4a09b347c31bcc5c1a86a43f3456fbf844af162376c692749b1c7cf368f46002805490506040516114939190612cce565b60405180910390a15050565b6114a76125f1565b6114b1600061266f565b565b6000600180549050905090565b60036020528060005260406000206000915054906101000a900460ff1681565b60008060009054906101000a900473ffffffffffffffffffffffffffffffffffffffff16905090565b60011515600360003373ffffffffffffffffffffffffffffffffffffffff1673ffffffffffffffffffffffffffffffffffffffff16815260200190815260200160002060009054906101000a900460ff1615151461159c576040517f08c379a0000000000000000000000000000000000000000000000000000000008152600401611593906131e7565b60405180910390fd5b8060018361ffff16815481106115b5576115b4613207565b5b906000526020600020906002020160000160106101000a8154816fffffffffffffffffffffffffffffffff02191690836fffffffffffffffffffffffffffffffff1602179055507f9a58368a00a72c5a076bbc06d1add3c98cc91abb82de6d175409eac6fb48b6146001805490506040516116309190612cce565b60405180910390a15050565b60011515600360003373ffffffffffffffffffffffffffffffffffffffff1673ffffffffffffffffffffffffffffffffffffffff16815260200190815260200160002060009054906101000a900460ff161515146116cf576040517f08c379a00000000000000000000000000000000000000000000000000000000081526004016116c6906131e7565b60405180910390fd5b60008290508073ffffffffffffffffffffffffffffffffffffffff1663a9059cbb33846040518363ffffffff1660e01b815260040161170f929190613236565b6020604051808303816000875af115801561172e573d6000803e3d6000fd5b505050506040513d601f19601f820116820180604052508101906117529190613274565b50505050565b6117606125f1565b6001600360008373ffffffffffffffffffffffffffffffffffffffff1673ffffffffffffffffffffffffffffffffffffffff16815260200190815260200160002060006101000a81548160ff02191690831515021790555050565b60011515600360003373ffffffffffffffffffffffffffffffffffffffff1673ffffffffffffffffffffffffffffffffffffffff16815260200190815260200160002060009054906101000a900460ff1615151461184e576040517f08c379a0000000000000000000000000000000000000000000000000000000008152600401611845906131e7565b60405180910390fd5b6000604051806101000160405280876fffffffffffffffffffffffffffffffff168152602001866fffffffffffffffffffffffffffffffff168152602001856fffffffffffffffffffffffffffffffff1681526020018463ffffffff1681526020014263ffffffff16815260200160018054905061ffff1681526020018360ff168152602001600115158152509050600181908060018154018082558091505060019003906000526020600020906002020160009091909190915060008201518160000160006101000a8154816fffffffffffffffffffffffffffffffff02191690836fffffffffffffffffffffffffffffffff16021790555060208201518160000160106101000a8154816fffffffffffffffffffffffffffffffff02191690836fffffffffffffffffffffffffffffffff16021790555060408201518160010160006101000a8154816fffffffffffffffffffffffffffffffff02191690836fffffffffffffffffffffffffffffffff16021790555060608201518160010160106101000a81548163ffffffff021916908363ffffffff16021790555060808201518160010160146101000a81548163ffffffff021916908363ffffffff16021790555060a08201518160010160186101000a81548161ffff021916908361ffff16021790555060c082015181600101601a6101000a81548160ff021916908360ff16021790555060e082015181600101601b6101000a81548160ff02191690831515021790555050507fe7f1c0e33d82ffe1a16aa806838954120cc5a1a9934e2e99479f71a515f57571600180549050604051611aae9190612cce565b60405180910390a1505050505050565b60011515600360003373ffffffffffffffffffffffffffffffffffffffff1673ffffffffffffffffffffffffffffffffffffffff16815260200190815260200160002060009054906101000a900460ff16151514611b51576040517f08c379a0000000000000000000000000000000000000000000000000000000008152600401611b48906131e7565b60405180910390fd5b8060028361ffff1681548110611b6a57611b69613207565b5b906000526020600020906004020160010160106101000a8154816fffffffffffffffffffffffffffffffff02191690836fffffffffffffffffffffffffffffffff1602179055505050565b60011515600360003373ffffffffffffffffffffffffffffffffffffffff1673ffffffffffffffffffffffffffffffffffffffff16815260200190815260200160002060009054906101000a900460ff16151514611c48576040517f08c379a0000000000000000000000000000000000000000000000000000000008152600401611c3f906131e7565b60405180910390fd5b60006040518061016001604052808773ffffffffffffffffffffffffffffffffffffffff168152602001856fffffffffffffffffffffffffffffffff16815260200160006fffffffffffffffffffffffffffffffff168152602001866fffffffffffffffffffffffffffffffff16815260200160006fffffffffffffffffffffffffffffffff1681526020014263ffffffff1681526020014263ffffffff1681526020018463ffffffff1681526020018361ffff16815260200160028054905061ffff168152602001600115158152509050600281908060018154018082558091505060019003906000526020600020906004020160009091909190915060008201518160000160006101000a81548173ffffffffffffffffffffffffffffffffffffffff021916908373ffffffffffffffffffffffffffffffffffffffff16021790555060208201518160010160006101000a8154816fffffffffffffffffffffffffffffffff02191690836fffffffffffffffffffffffffffffffff16021790555060408201518160010160106101000a8154816fffffffffffffffffffffffffffffffff02191690836fffffffffffffffffffffffffffffffff16021790555060608201518160020160006101000a8154816fffffffffffffffffffffffffffffffff02191690836fffffffffffffffffffffffffffffffff16021790555060808201518160020160106101000a8154816fffffffffffffffffffffffffffffffff02191690836fffffffffffffffffffffffffffffffff16021790555060a08201518160030160006101000a81548163ffffffff021916908363ffffffff16021790555060c08201518160030160046101000a81548163ffffffff021916908363ffffffff16021790555060e08201518160030160086101000a81548163ffffffff021916908363ffffffff16021790555061010082015181600301600c6101000a81548161ffff021916908361ffff16021790555061012082015181600301600e6101000a81548161ffff021916908361ffff1602179055506101408201518160030160106101000a81548160ff02191690831515021790555050507f58e2567878e9185c4a756dd01f3035c33070877ded8ad50b75137c53d46a73a5600280549050604051611f9d9190612cce565b60405180910390a1505050505050565b60011515600360003373ffffffffffffffffffffffffffffffffffffffff1673ffffffffffffffffffffffffffffffffffffffff16815260200190815260200160002060009054906101000a900460ff16151514612040576040517f08c379a0000000000000000000000000000000000000000000000000000000008152600401612037906131e7565b60405180910390fd5b8060018361ffff168154811061205957612058613207565b5b9060005260206000209060020201600101601a6101000a81548160ff021916908360ff1602179055505050565b60011515600360003373ffffffffffffffffffffffffffffffffffffffff1673ffffffffffffffffffffffffffffffffffffffff16815260200190815260200160002060009054906101000a900460ff16151514612119576040517f08c379a0000000000000000000000000000000000000000000000000000000008152600401612110906131e7565b60405180910390fd5b8060028361ffff168154811061213257612131613207565b5b906000526020600020906004020160030160046101000a81548163ffffffff021916908363ffffffff1602179055505050565b6001818154811061217557600080fd5b90600052602060002090600202016000915090508060000160009054906101000a90046fffffffffffffffffffffffffffffffff16908060000160109054906101000a90046fffffffffffffffffffffffffffffffff16908060010160009054906101000a90046fffffffffffffffffffffffffffffffff16908060010160109054906101000a900463ffffffff16908060010160149054906101000a900463ffffffff16908060010160189054906101000a900461ffff169080600101601a9054906101000a900460ff169080600101601b9054906101000a900460ff16905088565b6122616125f1565b600073ffffffffffffffffffffffffffffffffffffffff168173ffffffffffffffffffffffffffffffffffffffff16036122d0576040517f08c379a00000000000000000000000000000000000000000000000000000000081526004016122c790613313565b60405180910390fd5b6122d98161266f565b50565b60606001805480602002602001604051908101604052809291908181526020016000905b828210156124b55783829060005260206000209060020201604051806101000160405290816000820160009054906101000a90046fffffffffffffffffffffffffffffffff166fffffffffffffffffffffffffffffffff166fffffffffffffffffffffffffffffffff1681526020016000820160109054906101000a90046fffffffffffffffffffffffffffffffff166fffffffffffffffffffffffffffffffff166fffffffffffffffffffffffffffffffff1681526020016001820160009054906101000a90046fffffffffffffffffffffffffffffffff166fffffffffffffffffffffffffffffffff166fffffffffffffffffffffffffffffffff1681526020016001820160109054906101000a900463ffffffff1663ffffffff1663ffffffff1681526020016001820160149054906101000a900463ffffffff1663ffffffff1663ffffffff1681526020016001820160189054906101000a900461ffff1661ffff1661ffff16815260200160018201601a9054906101000a900460ff1660ff1660ff16815260200160018201601b9054906101000a900460ff16151515158152505081526020019060010190612300565b50505050905090565b60011515600360003373ffffffffffffffffffffffffffffffffffffffff1673ffffffffffffffffffffffffffffffffffffffff16815260200190815260200160002060009054906101000a900460ff16151514612551576040517f08c379a0000000000000000000000000000000000000000000000000000000008152600401612548906131e7565b60405180910390fd5b8060018361ffff168154811061256a57612569613207565b5b906000526020600020906002020160000160006101000a8154816fffffffffffffffffffffffffffffffff02191690836fffffffffffffffffffffffffffffffff1602179055507f9a58368a00a72c5a076bbc06d1add3c98cc91abb82de6d175409eac6fb48b6146001805490506040516125e59190612cce565b60405180910390a15050565b6125f9612733565b73ffffffffffffffffffffffffffffffffffffffff166126176114e0565b73ffffffffffffffffffffffffffffffffffffffff161461266d576040517f08c379a00000000000000000000000000000000000000000000000000000000081526004016126649061337f565b60405180910390fd5b565b60008060009054906101000a900473ffffffffffffffffffffffffffffffffffffffff169050816000806101000a81548173ffffffffffffffffffffffffffffffffffffffff021916908373ffffffffffffffffffffffffffffffffffffffff1602179055508173ffffffffffffffffffffffffffffffffffffffff168173ffffffffffffffffffffffffffffffffffffffff167f8be0079c531659141344cd1fd0a4f28419497f9722a3daafe3b4186f6b6457e060405160405180910390a35050565b600033905090565b600081519050919050565b600082825260208201905092915050565b6000819050602082019050919050565b600073ffffffffffffffffffffffffffffffffffffffff82169050919050565b600061279282612767565b9050919050565b6127a281612787565b82525050565b60006fffffffffffffffffffffffffffffffff82169050919050565b6127cd816127a8565b82525050565b600063ffffffff82169050919050565b6127ec816127d3565b82525050565b600061ffff82169050919050565b612809816127f2565b82525050565b60008115159050919050565b6128248161280f565b82525050565b610160820160008201516128416000850182612799565b50602082015161285460208501826127c4565b50604082015161286760408501826127c4565b50606082015161287a60608501826127c4565b50608082015161288d60808501826127c4565b5060a08201516128a060a08501826127e3565b5060c08201516128b360c08501826127e3565b5060e08201516128c660e08501826127e3565b506101008201516128db610100850182612800565b506101208201516128f0610120850182612800565b5061014082015161290561014085018261281b565b50505050565b6000612917838361282a565b6101608301905092915050565b6000602082019050919050565b600061293c8261273b565b6129468185612746565b935061295183612757565b8060005b83811015612982578151612969888261290b565b975061297483612924565b925050600181019050612955565b5085935050505092915050565b600060208201905081810360008301526129a98184612931565b905092915050565b600080fd5b6129bf81612787565b81146129ca57600080fd5b50565b6000813590506129dc816129b6565b92915050565b6000602082840312156129f8576129f76129b1565b5b6000612a06848285016129cd565b91505092915050565b6000819050919050565b612a2281612a0f565b8114612a2d57600080fd5b50565b600081359050612a3f81612a19565b92915050565b600060208284031215612a5b57612a5a6129b1565b5b6000612a6984828501612a30565b91505092915050565b612a7b81612787565b82525050565b612a8a816127a8565b82525050565b612a99816127d3565b82525050565b612aa8816127f2565b82525050565b612ab78161280f565b82525050565b600061016082019050612ad3600083018e612a72565b612ae0602083018d612a81565b612aed604083018c612a81565b612afa606083018b612a81565b612b07608083018a612a81565b612b1460a0830189612a90565b612b2160c0830188612a90565b612b2e60e0830187612a90565b612b3c610100830186612a9f565b612b4a610120830185612a9f565b612b58610140830184612aae565b9c9b505050505050505050505050565b612b71816127f2565b8114612b7c57600080fd5b50565b600081359050612b8e81612b68565b92915050565b612b9d8161280f565b8114612ba857600080fd5b50565b600081359050612bba81612b94565b92915050565b60008060408385031215612bd757612bd66129b1565b5b6000612be585828601612b7f565b9250506020612bf685828601612bab565b9150509250929050565b612c09816127d3565b8114612c1457600080fd5b50565b600081359050612c2681612c00565b92915050565b60008060408385031215612c4357612c426129b1565b5b6000612c5185828601612b7f565b9250506020612c6285828601612c17565b9150509250929050565b600080600060608486031215612c8557612c846129b1565b5b6000612c93868287016129cd565b9350506020612ca4868287016129cd565b9250506040612cb586828701612a30565b9150509250925092565b612cc881612a0f565b82525050565b6000602082019050612ce36000830184612cbf565b92915050565b60008060408385031215612d0057612cff6129b1565b5b6000612d0e85828601612b7f565b9250506020612d1f858286016129cd565b9150509250929050565b612d32816127a8565b8114612d3d57600080fd5b50565b600081359050612d4f81612d29565b92915050565b60008060408385031215612d6c57612d6b6129b1565b5b6000612d7a85828601612b7f565b9250506020612d8b85828601612d40565b9150509250929050565b6000602082019050612daa6000830184612aae565b92915050565b6000602082019050612dc56000830184612a72565b92915050565b60008060408385031215612de257612de16129b1565b5b6000612df0858286016129cd565b9250506020612e0185828601612a30565b9150509250929050565b600060ff82169050919050565b612e2181612e0b565b8114612e2c57600080fd5b50565b600081359050612e3e81612e18565b92915050565b600080600080600060a08688031215612e6057612e5f6129b1565b5b6000612e6e88828901612d40565b9550506020612e7f88828901612d40565b9450506040612e9088828901612d40565b9350506060612ea188828901612c17565b9250506080612eb288828901612e2f565b9150509295509295909350565b600080600080600060a08688031215612edb57612eda6129b1565b5b6000612ee9888289016129cd565b9550506020612efa88828901612d40565b9450506040612f0b88828901612d40565b9350506060612f1c88828901612c17565b9250506080612f2d88828901612b7f565b9150509295509295909350565b60008060408385031215612f5157612f506129b1565b5b6000612f5f85828601612b7f565b9250506020612f7085828601612e2f565b9150509250929050565b612f8381612e0b565b82525050565b600061010082019050612f9f600083018b612a81565b612fac602083018a612a81565b612fb96040830189612a81565b612fc66060830188612a90565b612fd36080830187612a90565b612fe060a0830186612a9f565b612fed60c0830185612f7a565b612ffa60e0830184612aae565b9998505050505050505050565b600081519050919050565b600082825260208201905092915050565b6000819050602082019050919050565b61303c81612e0b565b82525050565b6101008201600082015161305960008501826127c4565b50602082015161306c60208501826127c4565b50604082015161307f60408501826127c4565b50606082015161309260608501826127e3565b5060808201516130a560808501826127e3565b5060a08201516130b860a0850182612800565b5060c08201516130cb60c0850182613033565b5060e08201516130de60e085018261281b565b50505050565b60006130f08383613042565b6101008301905092915050565b6000602082019050919050565b600061311582613007565b61311f8185613012565b935061312a83613023565b8060005b8381101561315b57815161314288826130e4565b975061314d836130fd565b92505060018101905061312e565b5085935050505092915050565b60006020820190508181036000830152613182818461310a565b905092915050565b600082825260208201905092915050565b7f6e6f7420616c6c6f7720746f2075736500000000000000000000000000000000600082015250565b60006131d160108361318a565b91506131dc8261319b565b602082019050919050565b60006020820190508181036000830152613200816131c4565b9050919050565b7f4e487b7100000000000000000000000000000000000000000000000000000000600052603260045260246000fd5b600060408201905061324b6000830185612a72565b6132586020830184612cbf565b9392505050565b60008151905061326e81612b94565b92915050565b60006020828403121561328a576132896129b1565b5b60006132988482850161325f565b91505092915050565b7f4f776e61626c653a206e6577206f776e657220697320746865207a65726f206160008201527f6464726573730000000000000000000000000000000000000000000000000000602082015250565b60006132fd60268361318a565b9150613308826132a1565b604082019050919050565b6000602082019050818103600083015261332c816132f0565b9050919050565b7f4f776e61626c653a2063616c6c6572206973206e6f7420746865206f776e6572600082015250565b600061336960208361318a565b915061337482613333565b602082019050919050565b600060208201905081810360008301526133988161335c565b905091905056fea264697066735822122063c799c18588f12596de88f7c0d784451bbf63b631525327915073974fc5f0bc64736f6c63430008100033",
  "linkReferences": {},
  "deployedLinkReferences": {}
}